:100000000C9465000C948D000C948D000C948D0064
:100010000C948D000C948D000C9405020C948D00B2
:100020000C948D000C94C4040C948D000C948D00E1
:100030000C948D000C948D000C948D000C948D000C
:100040000C948D000C948D000C948D000C948D00FC
:100050000C948D0000000002000000000000000071
:100060000504000700000000000000000000000080
:100070000000000001020408102040800102040872
:100080001020408001020408102040800102040872
:100090001020408002020202020202020404040450
:1000A0000404040403030303030303030101010124
:1000B0000101010100003B00380035003200000062
:1000C0003A00370034003100F90111241FBECFE59A
:1000D000D4E0DEBFCDBF10E0A0E6B0E0E6E6FBE096
:1000E00002C005900D92A636B107D9F720E0A6E62A
:1000F000B0E001C01D92AE39B207E1F710E0C5E6ED
:10010000D0E004C02197FE010E949C05C436D107AF
:10011000C9F70E94B5040C94B1050C9400006AE084
:1001200070E08CE690E00E9454036BE070E089E69A
:1001300090E00E9454036CE070E086E690E00E943C
:1001400054032FEF83ED90E3215080409040E1F77E
:1001500000C00000089560916400709165008CE615
:1001600090E00E948F03609162007091630068527A
:10017000710989E690E00E948F03609160007091A0
:1001800061006F5B7F4F86E690E00E948F032FEF48
:1001900083EC99E0215080409040E1F700C00000DE
:1001A00060916400709165008CE690E00E948F037E
:1001B00060916200709163006553710989E690E077
:1001C0000E948F03609160007091610066597F4FBB
:1001D00086E690E00E948F032FEF83EC99E0215098
:1001E00080409040E1F700C0000060916400709191
:1001F00065008CE690E00E948F0360916200709130
:1002000063006B52710989E690E00E948F03609150
:10021000600070916100625A7F4F86E690E00E9414
:100220008F032FEF83EC99E0215080409040E1F75D
:1002300000C0000060916400709165008CE690E061
:100240000E948F0360916200709163006851710990
:1002500089E690E00E948F036091600070916100D8
:100260006D5B7F4F86E690E00E948F032FEF83EC5B
:1002700099E0215080409040E1F700C0000060917B
:100280006400709165008CE690E00E948F0360919D
:100290006200709163006B50710989E690E00E94E2
:1002A0008F0360916000709161006C5C7F4F86E607
:1002B00090E00E948F032FEF83EC99E02150804063
:1002C0009040E1F700C0000060916400709165000B
:1002D0008CE690E00E948F03609162007091630051
:1002E0006F50710989E690E00E948F036091600071
:1002F000709161006A5C7F4F86E690E00E948F03F8
:100300002FEF83EC99E0215080409040E1F700C04E
:10031000000060916400709165008CE690E00E949E
:100320008F0360916200709163006251710989E6E8
:1003300090E00E948F036091600070916100675CA3
:100340007F4F86E690E00E948F032FEF83EC99E0C9
:10035000215080409040E1F700C0000060916400AF
:10036000709165008CE690E00E948F0360916200BE
:10037000709163006751710989E690E00E948F03D4
:100380006091600070916100645C7F4F86E690E050
:100390000E948F032FEF83EC99E021508040904022
:1003A000E1F700C0000060916400709165008CE688
:1003B00090E00E948F0360916200709163006B5126
:1003C000710989E690E00E948F036091600070914E
:1003D0006100625C7F4F86E690E00E948F032FEF02
:1003E00083EC99E0215080409040E1F700C000008C
:1003F00008958CE690E00E94BA0289E690E00E949F
:10040000BA0286E690E00C94BA021F920F920FB6E1
:100410000F9211242F933F934F935F936F937F938A
:100420008F939F93AF93BF93EF93FF93809170004F
:1004300087FF03C01DBC1CBC1BC020917000022E96
:10044000000C330B80916F0090E02817390784F47B
:1004500080917000082E000C990BFC01EE0FFF1F1D
:100460008E0F9F1FFC01EF58FF4F808186FD15C046
:10047000809170008F5F8093700020917000022E39
:10048000000C330B80916F0090E028173907C4F4FB
:10049000809170008C3034F113C080917000082E70
:1004A000000C990BFC01EE0FFF1F8E0F9F1FFC012C
:1004B000EF58FF4F808160E08F730E944304D8CFD4
:1004C0008CB59DB5049680349C4918F480E49CE971
:1004D00003C08CB59DB504969BBD8ABD8FEF8093FC
:1004E000700037C02CB53DB580917000082E000C0F
:1004F000990BFC01EE0FFF1F8E0F9F1FFC01EF58A1
:10050000FF4F81819281820F931F9BBD8ABD809195
:100510007000082E000C990BFC01EE0FFF1F8E0FD0
:100520009F1FFC01EF58FF4F808186FF12C0809112
:100530007000082E000C990BFC01EE0FFF1F8E0FB0
:100540009F1FFC01EF58FF4F808161E08F730E9475
:100550004304FF91EF91BF91AF919F918F917F9154
:100560006F915F914F913F912F910F900FBE0F9020
:100570001F901895FC0190916F009C30A0F481E0D1
:10058000890F80936F009083892F90E0FC01EE0F1C
:10059000FF1F8E0F9F1FFC01EF58FF4F88EB9BE062
:1005A0009283818308958FEF80830895DF92EF9285
:1005B000FF920F931F93CF93DF93EC01D62E7A0116
:1005C000890188818C3008F066C061E08D2D0E9421
:1005D00007048881E82FF0E09F01220F331FE20F0C
:1005E000F31FEF58FF4F9D2D9F732081207CD22E4B
:1005F000D92AD08260E272E0AB014E195F0957FF41
:1006000002C04D5F5F4F5595479555954795498376
:1006100040E659E09A01201B310B37FF02C02D5FE5
:100620003F4F35952795359527952A836CE00E9495
:1006300044059CE0899FB001112440E050E09A01FC
:10064000260F371FF901EE0FFF1F2E0F3F1FF90175
:10065000EF58FF4F908196FD12C04F5F5F4F4C30B7
:10066000510569F781110BC01FBC82E08EBD1DBC16
:100670001CBC88B7806188BF89B7806189BFE88169
:10068000F0E0CF01880F991FE80FF91FEF58FF4FD7
:100690008081806480838881DF91CF911F910F9149
:1006A000FF90EF90DF90089520E639E040E252E0BD
:1006B0000C94D602FC0190819C3080F5818128E861
:1006C00030E0281B310987FD3395220F331F220F9D
:1006D000331F621773077CF0828128E532E0281B04
:1006E000310987FD3395220F331F220F331F621705
:1006F00073070CF49B0122503109220F331F4FB7AF
:10070000F894892F90E0FC01EE0FFF1F8E0F9F1FC2
:10071000FC01EF58FF4F328321834FBF0895AF9202
:10072000BF92CF92DF92EF92FF920F931F93CF93DE
:10073000DF93EC01603282E078070CF03FC077FD78
:1007400006C0653B71052CF064EB70E002C060E010
:1007500070E0898128E830E05901A81AB10887FDC6
:10076000B394AA0CBB1CAA0CBB1C0B2C000CCC0811
:10077000DD08072E000C880B990B2A8108E512E092
:10078000021B110927FD1395000F111F000F111FE8
:10079000012E000C220B330B3F932F931F930F93CB
:1007A00014EBE12EF12C00E010E020E030E0A90194
:1007B0000E9473040F900F900F900F90CE01DF9165
:1007C000CF911F910F91FF90EF90DF90CF90BF904E
:1007D000AF900C945A03843059F028F4813099F08A
:1007E000823089F00895853031F0873041F00895E6
:1007F0008FB58F7702C08FB58F7D8FBD089585B57A
:100800008F7D85BD089583B78F7D83BF0895CF9376
:10081000DF9390E0FC01EC58FF4F2491FC01EC5673
:10082000FF4F8491882361F190E0880F991FFC01AC
:10083000E254FF4FC591D491FC01EC54FF4FA591B8
:10084000B491611109C09FB7F894888120958223E3
:100850008883EC912E230BC0623061F49FB7F8942B
:100860003881822F809583238883EC912E2B2C93C3
:100870009FBF06C08FB7F894E8812E2B28838FBFC7
:10088000DF91CF9108951F93CF93DF93282F30E00E
:10089000F901EC5AFF4F8491F901EC58FF4FD491C4
:1008A000F901EC56FF4FC491CC23C9F0162F8111EA
:1008B0000E94EB03EC2FF0E0EE0FFF1FEC54FF4F14
:1008C000A591B4918FB7F894111105C09C91ED2FAB
:1008D000E095E92302C0EC91ED2BEC938FBFDF9103
:1008E000CF911F9108954F925F926F927F92AF9236
:1008F000BF92CF92DF92EF92FF920F931F93CF930D
:10090000DF93CDB7DEB729013A019B01AC01241971
:1009100035094609570989899A89AB89BC89BC017F
:10092000CD016A197B098C099D090E943405A80133
:10093000970124193509460957090E945005CA0133
:10094000B9016A0D7B1D8C1D9D1DDF91CF911F91FB
:100950000F91FF90EF90DF90CF90BF90AF907F907E
:100960006F905F904F90089508950E940E050E9429
:10097000B4040E948F00C0E0D0E00E94AB0020973A
:10098000E1F30E940000F9CF1F920F920FB60F9271
:1009900011242F933F938F939F93AF93BF93809195
:1009A000960090919700A0919800B0919900309195
:1009B000950023E0230F2D3720F40196A11DB11DD2
:1009C00005C026E8230F0296A11DB11D20939500B6
:1009D0008093960090939700A0939800B09399000D
:1009E00080919A0090919B00A0919C00B0919D00F5
:1009F0000196A11DB11D80939A0090939B00A09336
:100A00009C00B0939D00BF91AF919F918F913F91BA
:100A10002F910F900FBE0F901F901895789483B769
:100A2000826083BF83B7816083BF83B7806483BFE5
:100A300083B7886083BF89B7816089BF1EBC8EB5CC
:100A400082608EBD8EB581608EBD8FB581608FBD99
:100A500085B5846085BD85B5806485BD329A319A3F
:100A6000309A379A1AB80895DB018F939F930E94AA
:100A70006F05BF91AF91A29F800D911DA39F900D17
:100A8000B29F900D11240895991B79E004C0991F1D
:100A9000961708F0961B881F7A95C9F780950895D8
:100AA000052E97FB1EF400940E94670557FD07D0A2
:100AB0000E947A0507FC03D04EF40C94670550950C
:100AC0004095309521953F4F4F4F5F4F089590953A
:100AD0008095709561957F4F8F4F9F4F08950E942D
:100AE000A205A59F900DB49F900DA49F800D911D10
:100AF00011240895A1E21A2EAA1BBB1BFD010DC0F3
:100B0000AA1FBB1FEE1FFF1FA217B307E407F507BD
:100B100020F0A21BB30BE40BF50B661F771F881F99
:100B2000991F1A9469F760957095809590959B012F
:100B3000AC01BD01CF010895EE0FFF1F0590F491A8
:100B4000E02D0994A29FB001B39FC001A39F700D37
:100B5000811D1124911DB29F700D811D1124911DC5
:060B60000895F894FFCF98
:060B6600280055006900A3
:103E000001C0B2C011248FE594E09EBF8DBF84B77E
:103E1000882349F0982F9A70923029F081FF02C0D0
:103E200097EF94BFCFD085E08EBD82E08BB988E15B
:103E30008AB986E880BD80E189B98EE0B0D0B89AB1
:103E400084E040E35CEF34E021E05DBD4CBD38BF71
:103E500008B602FEFDCF98B3922798BBA895815073
:103E6000A1F7C0E0D0E094D08134B1F491D0182F04
:103E70009AD0123811F482E00DC0113851F486E066
:103E800009C0853709F068C08ED08EE17DD084E905
:103E90007BD083E079D065C0823411F484E103C023
:103EA000853419F485E087D05CC0853541F470D045
:103EB000C82F6ED0D0E0D82BCC0FDD1F51C0863577
:103EC00021F484E078D080E0E5CF8436A1F560D09D
:103ED0005FD0182F5DD0D82E012F90E6E92EF12C5F
:103EE00057D0F70181937F010150D1F75CD0F5E401
:103EF000DF1201C0FFCF40E050E063E0CE0134D0DC
:103F00006E0180E6E82EF12CF7014081818150E0BE
:103F1000582B61E0C60128D0F2E0CF0ED11C125020
:103F200082E0E80EF11C1111EFCF40E050E065E0B7
:103F3000CE011AD016C0843709F0A3CF29D028D0DB
:103F4000F82E26D030D08E01F80185918F011CD03B
:103F5000FA94F110F9CF05C0813511F488E01FD033
:103F600022D080E111D07FCFFC010A0167BFE89524
:103F7000112407B600FCFDCF667029F0452B19F41B
:103F800081E187BFE89508955D9BFECF8CB90895C8
:103F90005F9BFECF5C9901C0A8958CB1089598E114
:103FA00091BD81BD0895F4DF803219F088E0F7DF1C
:103FB000FFCF84E1E9CFCF93C82FEADFC150E9F703
:103FC000CF91F1CF282E80E0EADFE0E0FF270994CF
:023FFE000206B9
:0400000300003E00BB
:00000001FF
